{
  "transactions": [
    {
      "hash": "0x0325172dd6e86f753379740beb5d2b7f3883eacae8aef92af1d6e1458d18c36e",
      "transactionType": "CALL",
      "contractName": null,
      "contractAddress": "0x9ddfaca8183c41ad55329bdeed9f6a8d53168b1b",
      "function": "createSubscription()",
      "arguments": [],
      "transaction": {
        "from": "0xbcbdd48efa5bbef2d11179bb8f6c3bdb0ad5be74",
        "to": "0x9ddfaca8183c41ad55329bdeed9f6a8d53168b1b",
        "value": "0x0",
        "input": "0xa21a23e4",
        "nonce": "0x3c",
        "chainId": "0xaa36a7"
      },
      "additionalContracts": [],
      "isFixedGasLimit": false
    },
    {
      "hash": "0x8198673aa170c730e036e0aee057a0ba95fb87f50b557cbe12ec51a434331cf4",
      "transactionType": "CALL",
      "contractName": null,
      "contractAddress": "0x779877a7b0d9e8603169ddbd7836e478b4624789",
      "function": "transferAndCall(address,uint256,bytes)",
      "arguments": [
        "0x9DdfaCa8183c41ad55329BdeeD9F6A8d53168B1B",
        "3000000000000000000",
        "0xeab9d1eec5eea634d71750baff37c0a384220257acb1368df441d89d05b4d704"
      ],
      "transaction": {
        "from": "0xbcbdd48efa5bbef2d11179bb8f6c3bdb0ad5be74",
        "to": "0x779877a7b0d9e8603169ddbd7836e478b4624789",
        "value": "0x0",
        "input": "0x4000aea00000000000000000000000009ddfaca8183c41ad55329bdeed9f6a8d53168b1b00000000000000000000000000000000000000000000000029a2241af62c000000000000000000000000000000000000000000000000000000000000000000600000000000000000000000000000000000000000000000000000000000000020eab9d1eec5eea634d71750baff37c0a384220257acb1368df441d89d05b4d704",
        "nonce": "0x3d",
        "chainId": "0xaa36a7"
      },
      "additionalContracts": [],
      "isFixedGasLimit": false
    },
    {
      "hash": "0x61d212d7077674a2f51a1298f09506588d907e59761661a5daa4f8f955ccd1cc",
      "transactionType": "CREATE",
      "contractName": "Raffle",
      "contractAddress": "0x3d209c86eb9e057217cf2ea2bf9b71d7e37ec6f8",
      "function": null,
      "arguments": [
        "10000000000000000",
        "30",
        "0x9DdfaCa8183c41ad55329BdeeD9F6A8d53168B1B",
        "0x787d74caea10b2b357790d5b5247c2f63d1d91572a9846f780606e4d953677ae",
        "106169522177766818053279641116125774548935827793113923661008078903238601266948",
        "500000"
      ],
      "transaction": {
        "from": "0xbcbdd48efa5bbef2d11179bb8f6c3bdb0ad5be74",
        "value": "0x0",
        "input": "0x6101206040526006805460ff1916905534801561001b57600080fd5b50604051620013223803806200132283398101604081905261003c916101e6565b8333806000816100935760405162461bcd60e51b815260206004820152601860248201527f43616e6e6f7420736574206f776e657220746f207a65726f000000000000000060448201526064015b60405180910390fd5b600080546001600160a01b0319166001600160a01b03848116919091179091558116156100c3576100c38161013d565b5050506001600160a01b0381166100ed5760405163d92e233d60e01b815260040160405180910390fd5b600280546001600160a01b0319166001600160a01b039290921691909117905560a095909552610100939093526080525060c05263ffffffff1660e052426005556006805460ff1916905561025c565b336001600160a01b038216036101955760405162461bcd60e51b815260206004820152601760248201527f43616e6e6f74207472616e7366657220746f2073656c66000000000000000000604482015260640161008a565b600180546001600160a01b0319166001600160a01b0383811691821790925560008054604051929316917fed8889f560326eb138920d842192f0eb3dd22b4f139c87a2c57538e05bae12789190a350565b60008060008060008060c087890312156101ff57600080fd5b86516020880151604089015191975095506001600160a01b038116811461022557600080fd5b80945050606087015192506080870151915060a087015163ffffffff8116811461024e57600080fd5b809150509295509295509295565b60805160a05160c05160e05161010051611073620002af600039600081816101c20152610669015260006105600152600061052f01526000818161016501526103d10152600061050901526110736000f3fe6080604052600436106100fe5760003560e01c80636f9fb98a116100955780639eccacf6116100645780639eccacf6146102ac578063ae4596a2146102cc578063f2fde38b146102e1578063f48f0d8d14610301578063f51673181461032157600080fd5b80636f9fb98a1461024657806379ba5097146102595780638da5cb5b1461026e5780638ea981171461028c57600080fd5b80634585e33b116100d15780634585e33b1461019357806346bbfa89146101b3578063473f1ddc146101e65780636e04ff0d1461021857600080fd5b8063115cbaf5146101035780631fe543e31461012c5780632cfcc5391461014e57806331f1499c14610156575b600080fd5b34801561010f57600080fd5b5060065460ff166040516101239190610c89565b60405180910390f35b34801561013857600080fd5b5061014c610147366004610cb1565b610343565b005b61014c610398565b34801561016257600080fd5b507f00000000000000000000000000000000000000000000000000000000000000005b604051908152602001610123565b34801561019f57600080fd5b5061014c6101ae366004610d30565b61047e565b3480156101bf57600080fd5b507f0000000000000000000000000000000000000000000000000000000000000000610185565b3480156101f257600080fd5b506003546001600160a01b03165b6040516001600160a01b039091168152602001610123565b34801561022457600080fd5b50610238610233366004610db8565b610661565b604051610123929190610eaf565b34801561025257600080fd5b5047610185565b34801561026557600080fd5b5061014c6106fc565b34801561027a57600080fd5b506000546001600160a01b0316610200565b34801561029857600080fd5b5061014c6102a7366004610ed2565b6107a6565b3480156102b857600080fd5b50600254610200906001600160a01b031681565b3480156102d857600080fd5b50600554610185565b3480156102ed57600080fd5b5061014c6102fc366004610ed2565b610898565b34801561030d57600080fd5b5061020061031c366004610f02565b6108ac565b34801561032d57600080fd5b506103366108dc565b6040516101239190610f1b565b6002546001600160a01b031633146103885760025460405163073e64fd60e21b81523360048201526001600160a01b0390911660248201526044015b60405180910390fd5b61039383838361093e565b505050565b600060065460ff1660018111156103b1576103b1610c73565b146103cf5760405163050955c760e21b815260040160405180910390fd5b7f0000000000000000000000000000000000000000000000000000000000000000341015610410576040516321776d8560e21b815260040160405180910390fd5b6004805460018101825560009182527f8a35acfbc15ff81a39ae7d344fd709f28e8600b4aa8c65c6b64bfe7fe36bd19b0180546001600160a01b0319163390811790915560405190917f634f3211e3a4e43fee5a21ad9f87ca153b300fc78b1c557a2057dbe9c63bcb4791a2565b600061049860405180602001604052806000815250610661565b509050806104e75760045460065447919060ff1660018111156104bd576104bd610c73565b604051631d46b04360e11b815260048101939093526024830191909152604482015260640161037f565b600680546001919060ff19168280021790555060006040518060c001604052807f000000000000000000000000000000000000000000000000000000000000000081526020017f00000000000000000000000000000000000000000000000000000000000000008152602001600361ffff1681526020017f000000000000000000000000000000000000000000000000000000000000000063ffffffff168152602001600163ffffffff1681526020016105b1604051806020016040528060001515815250610a8a565b9052600254604051634d8e1c2f60e11b81529192506000916001600160a01b0390911690639b1c385e906105e9908590600401610f68565b6020604051808303816000875af1158015610608573d6000803e3d6000fd5b505050506040513d601f19601f8201168201806040525081019061062c9190610fc5565b60405190915081907ffb6ffb3a69b3e02728c61005cf4e518880cff2fe90084c6c3e7ac6b019a7779b90600090a25050505050565b6000606060007f0000000000000000000000000000000000000000000000000000000000000000600554426106969190610fde565b11905060008060065460ff1660018111156106b3576106b3610c73565b6004549114915047151590151560008480156106cc5750835b80156106d55750825b80156106de5750815b60408051602081019091526000815290999098509650505050505050565b6001546001600160a01b0316331461074f5760405162461bcd60e51b815260206004820152601660248201527526bab9ba10313290383937b837b9b2b21037bbb732b960511b604482015260640161037f565b60008054336001600160a01b0319808316821784556001805490911690556040516001600160a01b0390921692909183917f8be0079c531659141344cd1fd0a4f28419497f9722a3daafe3b4186f6b6457e091a350565b6000546001600160a01b031633148015906107cc57506002546001600160a01b03163314155b1561081d57336107e46000546001600160a01b031690565b60025460405163061db9c160e01b81526001600160a01b039384166004820152918316602483015291909116604482015260640161037f565b6001600160a01b0381166108445760405163d92e233d60e01b815260040160405180910390fd5b600280546001600160a01b0319166001600160a01b0383169081179091556040519081527fd1a6a14209a385a964d036e404cb5cfb71f4000cdb03c9366292430787261be69060200160405180910390a150565b6108a0610afb565b6108a981610b50565b50565b6000600482815481106108c1576108c1611005565b6000918252602090912001546001600160a01b031692915050565b6060600480548060200260200160405190810160405280929190818152602001828054801561093457602002820191906000526020600020905b81546001600160a01b03168152600190910190602001808311610916575b5050505050905090565b6004546000908383838161095457610954611005565b90506020020135610965919061101b565b905060006004828154811061097c5761097c611005565b600091825260208083209190910154600380546001600160a01b0319166001600160a01b0390921691821790556006805460ff19169055604080519384529183019182905291519192506109d39160049190610bf9565b50426005556040516000906001600160a01b0383169047908381818185875af1925050503d8060008114610a23576040519150601f19603f3d011682016040523d82523d6000602084013e610a28565b606091505b5050905080610a4a5760405163a1d04b3960e01b815260040160405180910390fd5b6003546040516001600160a01b03909116907ff7ba90128c58206af15e5981c98c83a29bc536a92b9a3e43b8062497c2f2844390600090a2505050505050565b60607f92fd13387c7fe7befbc38d303d6468778fb9731bc4583f17d92989c6fcfdeaaa82604051602401610ac391511515815260200190565b60408051601f198184030181529190526020810180516001600160e01b03166001600160e01b03199093169290921790915292915050565b6000546001600160a01b03163314610b4e5760405162461bcd60e51b815260206004820152601660248201527527b7363c9031b0b63630b1363290313c9037bbb732b960511b604482015260640161037f565b565b336001600160a01b03821603610ba85760405162461bcd60e51b815260206004820152601760248201527f43616e6e6f74207472616e7366657220746f2073656c66000000000000000000604482015260640161037f565b600180546001600160a01b0319166001600160a01b0383811691821790925560008054604051929316917fed8889f560326eb138920d842192f0eb3dd22b4f139c87a2c57538e05bae12789190a350565b828054828255906000526020600020908101928215610c4e579160200282015b82811115610c4e57825182546001600160a01b0319166001600160a01b03909116178255602090920191600190910190610c19565b50610c5a929150610c5e565b5090565b5b80821115610c5a5760008155600101610c5f565b634e487b7160e01b600052602160045260246000fd5b6020810160028310610cab57634e487b7160e01b600052602160045260246000fd5b91905290565b600080600060408486031215610cc657600080fd5b83359250602084013567ffffffffffffffff80821115610ce557600080fd5b818601915086601f830112610cf957600080fd5b813581811115610d0857600080fd5b8760208260051b8501011115610d1d57600080fd5b6020830194508093505050509250925092565b60008060208385031215610d4357600080fd5b823567ffffffffffffffff80821115610d5b57600080fd5b818501915085601f830112610d6f57600080fd5b813581811115610d7e57600080fd5b866020828501011115610d9057600080fd5b60209290920196919550909350505050565b634e487b7160e01b600052604160045260246000fd5b600060208284031215610dca57600080fd5b813567ffffffffffffffff80821115610de257600080fd5b818401915084601f830112610df657600080fd5b813581811115610e0857610e08610da2565b604051601f8201601f19908116603f01168101908382118183101715610e3057610e30610da2565b81604052828152876020848701011115610e4957600080fd5b826020860160208301376000928101602001929092525095945050505050565b6000815180845260005b81811015610e8f57602081850181015186830182015201610e73565b506000602082860101526020601f19601f83011685010191505092915050565b8215158152604060208201526000610eca6040830184610e69565b949350505050565b600060208284031215610ee457600080fd5b81356001600160a01b0381168114610efb57600080fd5b9392505050565b600060208284031215610f1457600080fd5b5035919050565b6020808252825182820181905260009190848201906040850190845b81811015610f5c5783516001600160a01b031683529284019291840191600101610f37565b50909695505050505050565b60208152815160208201526020820151604082015261ffff60408301511660608201526000606083015163ffffffff80821660808501528060808601511660a0850152505060a083015160c080840152610eca60e0840182610e69565b600060208284031215610fd757600080fd5b5051919050565b81810381811115610fff57634e487b7160e01b600052601160045260246000fd5b92915050565b634e487b7160e01b600052603260045260246000fd5b60008261103857634e487b7160e01b600052601260045260246000fd5b50069056fea26469706673582212200a8da3cdd73a6a9a8ee3fe9798e4deca78d2b85fd69c32717cf8c7f7c7b27de864736f6c63430008130033000000000000000000000000000000000000000000000000002386f26fc10000000000000000000000000000000000000000000000000000000000000000001e0000000000000000000000009ddfaca8183c41ad55329bdeed9f6a8d53168b1b787d74caea10b2b357790d5b5247c2f63d1d91572a9846f780606e4d953677aeeab9d1eec5eea634d71750baff37c0a384220257acb1368df441d89d05b4d704000000000000000000000000000000000000000000000000000000000007a120",
        "nonce": "0x3e",
        "chainId": "0xaa36a7"
      },
      "additionalContracts": [],
      "isFixedGasLimit": false
    },
    {
      "hash": "0x5c65bfa6512a8550c6eeee1e12843cf9af6c236ddd34ab8ea05048362940ead0",
      "transactionType": "CALL",
      "contractName": null,
      "contractAddress": "0x9ddfaca8183c41ad55329bdeed9f6a8d53168b1b",
      "function": "addConsumer(uint256,address)",
      "arguments": [
        "106169522177766818053279641116125774548935827793113923661008078903238601266948",
        "0x3D209c86eb9e057217cF2ea2bf9B71D7e37eC6F8"
      ],
      "transaction": {
        "from": "0xbcbdd48efa5bbef2d11179bb8f6c3bdb0ad5be74",
        "to": "0x9ddfaca8183c41ad55329bdeed9f6a8d53168b1b",
        "value": "0x0",
        "input": "0xbec4c08ceab9d1eec5eea634d71750baff37c0a384220257acb1368df441d89d05b4d7040000000000000000000000003d209c86eb9e057217cf2ea2bf9b71d7e37ec6f8",
        "nonce": "0x3f",
        "chainId": "0xaa36a7"
      },
      "additionalContracts": [],
      "isFixedGasLimit": false
    }
  ],
  "receipts": [
    {
      "status": "0x1",
      "cumulativeGasUsed": "0x1a4a06d",
      "logs": [
        {
          "address": "0x9ddfaca8183c41ad55329bdeed9f6a8d53168b1b",
          "topics": [
            "0x1d3015d7ba850fa198dc7b1a3f5d42779313a681035f77c8c03764c61005518d",
            "0xeab9d1eec5eea634d71750baff37c0a384220257acb1368df441d89d05b4d704"
          ],
          "data": "0x000000000000000000000000bcbdd48efa5bbef2d11179bb8f6c3bdb0ad5be74",
          "blockHash": "0xce456ae337b1c7b91ce70a6bdb92875f860fff3260bac17bb4bb74a0dd6d1a59",
          "blockNumber": "0xa10866",
          "blockTimestamp": "0x69ca65e4",
          "transactionHash": "0x0325172dd6e86f753379740beb5d2b7f3883eacae8aef92af1d6e1458d18c36e",
          "transactionIndex": "0xa5",
          "logIndex": "0x302",
          "removed": false
        }
      ],
      "logsBloom": "0x00000000000000000000000000000000000000000020000000000000000000000000000000000000000000000000000000000000000000000000000000000000000000000000000000000000000000000000000000000400000000000000000008000000000000000000000000000000000004000000000000000000000000000000000000000000000000010000000000000000000000000000000000000000000000000000000000000000000000000000000000000000000000000000080800000000000000000000000000000000000000000000000400000000000000000000000000000000000000200000000000000000000000000000000000000000",
      "type": "0x2",
      "transactionHash": "0x0325172dd6e86f753379740beb5d2b7f3883eacae8aef92af1d6e1458d18c36e",
      "transactionIndex": "0xa5",
      "blockHash": "0xce456ae337b1c7b91ce70a6bdb92875f860fff3260bac17bb4bb74a0dd6d1a59",
      "blockNumber": "0xa10866",
      "gasUsed": "0x1acd8",
      "effectiveGasPrice": "0xf4258",
      "from": "0xbcbdd48efa5bbef2d11179bb8f6c3bdb0ad5be74",
      "to": "0x9ddfaca8183c41ad55329bdeed9f6a8d53168b1b",
      "contractAddress": null
    },
    {
      "status": "0x1",
      "cumulativeGasUsed": "0xfbc93c",
      "logs": [
        {
          "address": "0x779877a7b0d9e8603169ddbd7836e478b4624789",
          "topics": [
            "0xddf252ad1be2c89b69c2b068fc378daa952ba7f163c4a11628f55a4df523b3ef",
            "0x000000000000000000000000bcbdd48efa5bbef2d11179bb8f6c3bdb0ad5be74",
            "0x0000000000000000000000009ddfaca8183c41ad55329bdeed9f6a8d53168b1b"
          ],
          "data": "0x00000000000000000000000000000000000000000000000029a2241af62c0000",
          "blockHash": "0xafda5c8d89d607ea24eb74ebe458d8ece213ab86d48cb51aba580a86383d6e83",
          "blockNumber": "0xa10867",
          "blockTimestamp": "0x69ca65f0",
          "transactionHash": "0x8198673aa170c730e036e0aee057a0ba95fb87f50b557cbe12ec51a434331cf4",
          "transactionIndex": "0x70",
          "logIndex": "0x16d",
          "removed": false
        },
        {
          "address": "0x779877a7b0d9e8603169ddbd7836e478b4624789",
          "topics": [
            "0xe19260aff97b920c7df27010903aeb9c8d2be5d310a2c67824cf3f15396e4c16",
            "0x000000000000000000000000bcbdd48efa5bbef2d11179bb8f6c3bdb0ad5be74",
            "0x0000000000000000000000009ddfaca8183c41ad55329bdeed9f6a8d53168b1b"
          ],
          "data": "0x00000000000000000000000000000000000000000000000029a2241af62c000000000000000000000000000000000000000000000000000000000000000000400000000000000000000000000000000000000000000000000000000000000020eab9d1eec5eea634d71750baff37c0a384220257acb1368df441d89d05b4d704",
          "blockHash": "0xafda5c8d89d607ea24eb74ebe458d8ece213ab86d48cb51aba580a86383d6e83",
          "blockNumber": "0xa10867",
          "blockTimestamp": "0x69ca65f0",
          "transactionHash": "0x8198673aa170c730e036e0aee057a0ba95fb87f50b557cbe12ec51a434331cf4",
          "transactionIndex": "0x70",
          "logIndex": "0x16e",
          "removed": false
        },
        {
          "address": "0x9ddfaca8183c41ad55329bdeed9f6a8d53168b1b",
          "topics": [
            "0x1ced9348ff549fceab2ac57cd3a9de38edaaab274b725ee82c23e8fc8c4eec7a",
            "0xeab9d1eec5eea634d71750baff37c0a384220257acb1368df441d89d05b4d704"
          ],
          "data": "0x000000000000000000000000000000000000000000000000000000000000000000000000000000000000000000000000000000000000000029a2241af62c0000",
          "blockHash": "0xafda5c8d89d607ea24eb74ebe458d8ece213ab86d48cb51aba580a86383d6e83",
          "blockNumber": "0xa10867",
          "blockTimestamp": "0x69ca65f0",
          "transactionHash": "0x8198673aa170c730e036e0aee057a0ba95fb87f50b557cbe12ec51a434331cf4",
          "transactionIndex": "0x70",
          "logIndex": "0x16f",
          "removed": false
        }
      ],
      "logsBloom": "0x00000004000000000000000000000000000000000020000000000000020000000000000000000000000000000000000000000000000000000000000000000000000000000000000000000008000000000000000000000000000020000020000008000000000000000000000000000000000000000000000000000010000040000000000000000000000080010000800000000020000000000000000000000000200000000000000000000000010000000000000000000000000004000000080000000002000000000000000000000000000000000000000500040000000000000010000000000000800000200000000000000000000000000000000000000000",
      "type": "0x2",
      "transactionHash": "0x8198673aa170c730e036e0aee057a0ba95fb87f50b557cbe12ec51a434331cf4",
      "transactionIndex": "0x70",
      "blockHash": "0xafda5c8d89d607ea24eb74ebe458d8ece213ab86d48cb51aba580a86383d6e83",
      "blockNumber": "0xa10867",
      "gasUsed": "0x133b1",
      "effectiveGasPrice": "0xf4259",
      "from": "0xbcbdd48efa5bbef2d11179bb8f6c3bdb0ad5be74",
      "to": "0x779877a7b0d9e8603169ddbd7836e478b4624789",
      "contractAddress": null
    },
    {
      "status": "0x1",
      "cumulativeGasUsed": "0x11f257c",
      "logs": [],
      "logsBloom": "0x00000000000000000000000000000000000000000000000000000000000000000000000000000000000000000000000000000000000000000000000000000000000000000000000000000000000000000000000000000000000000000000000000000000000000000000000000000000000000000000000000000000000000000000000000000000000000000000000000000000000000000000000000000000000000000000000000000000000000000000000000000000000000000000000000000000000000000000000000000000000000000000000000000000000000000000000000000000000000000000000000000000000000000000000000000000",
      "type": "0x2",
      "transactionHash": "0x61d212d7077674a2f51a1298f09506588d907e59761661a5daa4f8f955ccd1cc",
      "transactionIndex": "0x74",
      "blockHash": "0x1ce05bc0a2b78ad05de17fc6c118faf9afbf4175ad94c785b181450c99f00df3",
      "blockNumber": "0xa10868",
      "gasUsed": "0xfe418",
      "effectiveGasPrice": "0xf4259",
      "from": "0xbcbdd48efa5bbef2d11179bb8f6c3bdb0ad5be74",
      "to": null,
      "contractAddress": "0x3d209c86eb9e057217cf2ea2bf9b71d7e37ec6f8"
    },
    {
      "status": "0x1",
      "cumulativeGasUsed": "0x245f5ae",
      "logs": [
        {
          "address": "0x9ddfaca8183c41ad55329bdeed9f6a8d53168b1b",
          "topics": [
            "0x1e980d04aa7648e205713e5e8ea3808672ac163d10936d36f91b2c88ac1575e1",
            "0xeab9d1eec5eea634d71750baff37c0a384220257acb1368df441d89d05b4d704"
          ],
          "data": "0x0000000000000000000000003d209c86eb9e057217cf2ea2bf9b71d7e37ec6f8",
          "blockHash": "0x5ea62663ef0354ef583fb06c8ae3ee03f88888d9bc218e9a01e2e649d70713c5",
          "blockNumber": "0xa10869",
          "blockTimestamp": "0x69ca6608",
          "transactionHash": "0x5c65bfa6512a8550c6eeee1e12843cf9af6c236ddd34ab8ea05048362940ead0",
          "transactionIndex": "0xbc",
          "logIndex": "0x2be",
          "removed": false
        }
      ],
      "logsBloom": "0x00000000000000000000000000000080000000000020000000000000000000000000000000000000000000000000000000000000000000000000000000000000000000000000000000000000000000000000000000000001000000000000000008000000000000000000000000000000000000000000000000002000000000000000000000000000000000010000000000000000000000000000000000000000000000000000000000000000000000000000000000000000000000000000080000000000000000000000000000000000000000000000000400000000000000000000000000000000000000200000000000000000000000000000000000000000",
      "type": "0x2",
      "transactionHash": "0x5c65bfa6512a8550c6eeee1e12843cf9af6c236ddd34ab8ea05048362940ead0",
      "transactionIndex": "0xbc",
      "blockHash": "0x5ea62663ef0354ef583fb06c8ae3ee03f88888d9bc218e9a01e2e649d70713c5",
      "blockNumber": "0xa10869",
      "gasUsed": "0x173d2",
      "effectiveGasPrice": "0xf4259",
      "from": "0xbcbdd48efa5bbef2d11179bb8f6c3bdb0ad5be74",
      "to": "0x9ddfaca8183c41ad55329bdeed9f6a8d53168b1b",
      "contractAddress": null
    }
  ],
  "libraries": [],
  "pending": [],
  "returns": {},
  "timestamp": 1774872074067,
  "chain": 11155111,
  "commit": "e2f76bc"
}